{
  "contractName": "ExpenseTracker",
  "abi": [
    {
      "inputs": [
        {
          "internalType": "uint256",
          "name": "",
          "type": "uint256"
        }
      ],
      "name": "transaction",
      "outputs": [
        {
          "internalType": "address",
          "name": "transactionOwner",
          "type": "address"
        },
        {
          "internalType": "int64",
          "name": "amount",
          "type": "int64"
        },
        {
          "internalType": "string",
          "name": "transactionDescription",
          "type": "string"
        }
      ],
      "stateMutability": "view",
      "type": "function",
      "constant": true
    },
    {
      "inputs": [
        {
          "internalType": "string",
          "name": "_transactionDescription",
          "type": "string"
        },
        {
          "internalType": "int64",
          "name": "_amount",
          "type": "int64"
        }
      ],
      "name": "addTransaction",
      "outputs": [],
      "stateMutability": "nonpayable",
      "type": "function"
    },
    {
      "inputs": [],
      "name": "transactionCount",
      "outputs": [
        {
          "internalType": "uint256",
          "name": "",
          "type": "uint256"
        }
      ],
      "stateMutability": "view",
      "type": "function",
      "constant": true
    }
  ],
  "bytecode": "0x60806040526000805534801561001457600080fd5b5061054a806100246000396000f3fe608060405234801561001057600080fd5b50600436106100415760003560e01c806346bd08411461004657806372d064721461012d578063b77bf600146101f5575b600080fd5b6100726004803603602081101561005c57600080fd5b8101908080359060200190929190505050610213565b604051808473ffffffffffffffffffffffffffffffffffffffff1673ffffffffffffffffffffffffffffffffffffffff1681526020018360070b60070b815260200180602001828103825283818151815260200191508051906020019080838360005b838110156100f05780820151818401526020810190506100d5565b50505050905090810190601f16801561011d5780820380516001836020036101000a031916815260200191505b5094505050505060405180910390f35b6101f36004803603604081101561014357600080fd5b810190808035906020019064010000000081111561016057600080fd5b82018360208201111561017257600080fd5b8035906020019184600183028401116401000000008311171561019457600080fd5b91908080601f016020809104026020016040519081016040528093929190818152602001838380828437600081840152601f19601f820116905080830192505050505050509192919290803560070b906020019092919050505061030f565b005b6101fd610428565b6040518082815260200191505060405180910390f35b6001818154811061022057fe5b90600052602060002090600202016000915090508060000160009054906101000a900473ffffffffffffffffffffffffffffffffffffffff16908060000160149054906101000a900460070b90806001018054600181600116156101000203166002900480601f0160208091040260200160405190810160405280929190818152602001828054600181600116156101000203166002900480156103055780601f106102da57610100808354040283529160200191610305565b820191906000526020600020905b8154815290600101906020018083116102e857829003601f168201915b5050505050905083565b610317610435565b60405180606001604052803373ffffffffffffffffffffffffffffffffffffffff1681526020018360070b8152602001848152509050600181908060018154018082558091505060019003906000526020600020906002020160009091909190915060008201518160000160006101000a81548173ffffffffffffffffffffffffffffffffffffffff021916908373ffffffffffffffffffffffffffffffffffffffff16021790555060208201518160000160146101000a81548167ffffffffffffffff021916908360070b67ffffffffffffffff160217905550604082015181600101908051906020019061040e92919061046f565b5050508160070b6000808282540192505081905550505050565b6000600180549050905090565b6040518060600160405280600073ffffffffffffffffffffffffffffffffffffffff168152602001600060070b8152602001606081525090565b828054600181600116156101000203166002900490600052602060002090601f016020900481019282601f106104b057805160ff19168380011785556104de565b828001600101855582156104de579182015b828111156104dd5782518255916020019190600101906104c2565b5b5090506104eb91906104ef565b5090565b61051191905b8082111561050d5760008160009055506001016104f5565b5090565b9056fea2646970667358221220814393119f7fcc0aaa7930ceefa4d309cf18be622229711a8188b4110f20127c64736f6c63430006000033",
  "source": "pragma solidity ^0.6.0;\n\ncontract ExpenseTracker {\n    int balance = 0;\n    struct Transaction {\n        address transactionOwner;\n        int64 amount;\n        string transactionDescription;\n    }\n    Transaction[] public transaction;\n\n    function addTransaction(\n        string memory _transactionDescription,\n        int64 _amount\n    ) public {\n        Transaction memory _tx = Transaction(\n            msg.sender,\n            _amount,\n            _transactionDescription\n        );\n        transaction.push(_tx);\n        balance += _amount;\n    }\n\n    function transactionCount() public view returns (uint) {\n        return transaction.length;\n    }\n}\n",
  "sourcePath": "/home/asadullah/truffle_project/backend/contracts/ExpenseTracker.sol",
  "compiler": {
    "name": "solc",
    "version": "0.6.0+commit.26b70077.Emscripten.clang"
  },
  "schemaVersion": "3.2.0",
  "updatedAt": "2020-12-09T20:22:26.685Z",
  "networkType": "ethereum",
  "devdoc": {
    "methods": {}
  },
  "userdoc": {
    "methods": {}
  }
}